{"abi":[{"type":"constructor","inputs":[{"name":"_gDollar","type":"address","internalType":"address"},{"name":"_identity","type":"address","internalType":"address"},{"name":"_oracle","type":"address","internalType":"address"}],"stateMutability":"nonpayable"},{"type":"function","name":"createMarket","inputs":[{"name":"question","type":"string","internalType":"string"},{"name":"category","type":"string","internalType":"string"},{"name":"externalId","type":"string","internalType":"string"},{"name":"endTime","type":"uint256","internalType":"uint256"},{"name":"liquidityParam","type":"uint256","internalType":"uint256"}],"outputs":[{"name":"marketId","type":"uint256","internalType":"uint256"},{"name":"marketAddress","type":"address","internalType":"address"}],"stateMutability":"nonpayable"},{"type":"function","name":"defaultLiquidityParam","inputs":[],"outputs":[{"name":"","type":"uint256","internalType":"uint256"}],"stateMutability":"view"},{"type":"function","name":"externalIdToMarket","inputs":[{"name":"","type":"string","internalType":"string"}],"outputs":[{"name":"","type":"uint256","internalType":"uint256"}],"stateMutability":"view"},{"type":"function","name":"gDollar","inputs":[],"outputs":[{"name":"","type":"address","internalType":"address"}],"stateMutability":"view"},{"type":"function","name":"getAllMarkets","inputs":[],"outputs":[{"name":"","type":"address[]","internalType":"address[]"}],"stateMutability":"view"},{"type":"function","name":"getMarket","inputs":[{"name":"marketId","type":"uint256","internalType":"uint256"}],"outputs":[{"name":"","type":"address","internalType":"address"}],"stateMutability":"view"},{"type":"function","name":"getMarketByExternalId","inputs":[{"name":"externalId","type":"string","internalType":"string"}],"outputs":[{"name":"","type":"address","internalType":"address"}],"stateMutability":"view"},{"type":"function","name":"identity","inputs":[],"outputs":[{"name":"","type":"address","internalType":"address"}],"stateMutability":"view"},{"type":"function","name":"implementation","inputs":[],"outputs":[{"name":"","type":"address","internalType":"address"}],"stateMutability":"view"},{"type":"function","name":"marketCount","inputs":[],"outputs":[{"name":"","type":"uint256","internalType":"uint256"}],"stateMutability":"view"},{"type":"function","name":"markets","inputs":[{"name":"","type":"uint256","internalType":"uint256"}],"outputs":[{"name":"","type":"address","internalType":"address"}],"stateMutability":"view"},{"type":"function","name":"oracle","inputs":[],"outputs":[{"name":"","type":"address","internalType":"address"}],"stateMutability":"view"},{"type":"function","name":"owner","inputs":[],"outputs":[{"name":"","type":"address","internalType":"address"}],"stateMutability":"view"},{"type":"function","name":"renounceOwnership","inputs":[],"outputs":[],"stateMutability":"nonpayable"},{"type":"function","name":"setDefaultLiquidityParam","inputs":[{"name":"_param","type":"uint256","internalType":"uint256"}],"outputs":[],"stateMutability":"nonpayable"},{"type":"function","name":"setOracle","inputs":[{"name":"_oracle","type":"address","internalType":"address"}],"outputs":[],"stateMutability":"nonpayable"},{"type":"function","name":"transferOwnership","inputs":[{"name":"newOwner","type":"address","internalType":"address"}],"outputs":[],"stateMutability":"nonpayable"},{"type":"event","name":"LiquidityParamUpdated","inputs":[{"name":"newParam","type":"uint256","indexed":false,"internalType":"uint256"}],"anonymous":false},{"type":"event","name":"MarketCreated","inputs":[{"name":"marketId","type":"uint256","indexed":true,"internalType":"uint256"},{"name":"marketAddress","type":"address","indexed":true,"internalType":"address"},{"name":"question","type":"string","indexed":false,"internalType":"string"},{"name":"category","type":"string","indexed":false,"internalType":"string"},{"name":"externalId","type":"string","indexed":false,"internalType":"string"},{"name":"endTime","type":"uint256","indexed":false,"internalType":"uint256"}],"anonymous":false},{"type":"event","name":"OracleUpdated","inputs":[{"name":"newOracle","type":"address","indexed":false,"internalType":"address"}],"anonymous":false},{"type":"event","name":"OwnershipTransferred","inputs":[{"name":"previousOwner","type":"address","indexed":true,"internalType":"address"},{"name":"newOwner","type":"address","indexed":true,"internalType":"address"}],"anonymous":false},{"type":"error","name":"FailedDeployment","inputs":[]},{"type":"error","name":"InsufficientBalance","inputs":[{"name":"balance","type":"uint256","internalType":"uint256"},{"name":"needed","type":"uint256","internalType":"uint256"}]},{"type":"error","name":"OwnableInvalidOwner","inputs":[{"name":"owner","type":"address","internalType":"address"}]},{"type":"error","name":"OwnableUnauthorizedAccount","inputs":[{"name":"account","type":"address","internalType":"address"}]}],"bytecode":{"object":"0x60e0604052683635c9adc5dea0000060025534801561001c575f80fd5b506040516200521b3803806200521b83398101604081905261003d9161014a565b338061006257604051631e4fbdf760e01b81525f600482015260240160405180910390fd5b61006b816100d2565b506001600160a01b0383811660a05282811660c052600180546001600160a01b0319169183169190911790556040516100a390610121565b604051809103905ff0801580156100bc573d5f803e3d5ffd5b506001600160a01b03166080525061018a915050565b5f80546001600160a01b038381166001600160a01b0319831681178455604051919092169283917f8be0079c531659141344cd1fd0a4f28419497f9722a3daafe3b4186f6b6457e09190a35050565b6143948062000e8783390190565b80516001600160a01b0381168114610145575f80fd5b919050565b5f805f6060848603121561015c575f80fd5b6101658461012f565b92506101736020850161012f565b91506101816040850161012f565b90509250925092565b60805160a05160c051610cbd620001ca5f395f818161019f015261063301525f8181610178015261061101525f81816101c601526105b50152610cbd5ff3fe608060405234801561000f575f80fd5b5060043610610106575f3560e01c80638da5cb5b1161009e578063d604b1601161006e578063d604b1601461026e578063eb44fdd31461029e578063ec041970146102c6578063ec979082146102d9578063f2fde38b146102e2575f80fd5b80638da5cb5b14610218578063b0772d0b14610228578063b1283e771461023d578063c6373fc814610265575f80fd5b80635c60da1b116100d95780635c60da1b146101c1578063715018a6146101e85780637adbf973146101f25780637dc0d1d014610205575f80fd5b8063067d9c001461010a57806313266b391461013a57806317716ef2146101735780632c159a1a1461019a575b5f80fd5b61011d6101183660046109aa565b6102f5565b6040516001600160a01b0390911681526020015b60405180910390f35b6101656101483660046109aa565b805160208183018101805160058252928201919093012091525481565b604051908152602001610131565b61011d7f000000000000000000000000000000000000000000000000000000000000000081565b61011d7f000000000000000000000000000000000000000000000000000000000000000081565b61011d7f000000000000000000000000000000000000000000000000000000000000000081565b6101f0610337565b005b6101f06102003660046109e4565b61034a565b60015461011d906001600160a01b031681565b5f546001600160a01b031661011d565b6102306103fa565b6040516101319190610a11565b61011d61024b366004610a5d565b60046020525f90815260409020546001600160a01b031681565b61016560025481565b61028161027c366004610a74565b6104b3565b604080519283526001600160a01b03909116602083015201610131565b61011d6102ac366004610a5d565b5f908152600460205260409020546001600160a01b031690565b6101f06102d4366004610a5d565b61072e565b61016560035481565b6101f06102f03660046109e4565b6107b0565b5f60045f6005846040516103099190610b29565b908152604080516020928190038301902054835290820192909252015f20546001600160a01b031692915050565b61033f6107ed565b6103485f610819565b565b6103526107ed565b6001600160a01b0381166103a55760405162461bcd60e51b8152602060048201526015602482015274466163746f72793a207a65726f206164647265737360581b60448201526064015b60405180910390fd5b600180546001600160a01b0319166001600160a01b0383169081179091556040519081527f3df77beb5db05fcdd70a30fc8adf3f83f9501b68579455adbd100b8180940394906020015b60405180910390a150565b60605f60035467ffffffffffffffff8111156104185761041861090d565b604051908082528060200260200182016040528015610441578160200160208202803683370190505b50905060015b60035481116104ad575f818152600460205260409020546001600160a01b031682610473600184610b58565b8151811061048357610483610b6b565b6001600160a01b0390921660209283029190910190910152806104a581610b7f565b915050610447565b50919050565b5f806104bd6107ed565b42841161050c5760405162461bcd60e51b815260206004820152601960248201527f466163746f72793a20656e642074696d6520696e207061737400000000000000604482015260640161039c565b845115610580576005856040516105239190610b29565b9081526020016040518091039020545f146105805760405162461bcd60e51b815260206004820181905260248201527f466163746f72793a206d61726b657420616c7265616479206d6972726f726564604482015260640161039c565b5f831561058d5783610591565b6002545b905060035f81546105a190610b7f565b918290555092506105da6001600160a01b037f000000000000000000000000000000000000000000000000000000000000000016610868565b600154604051637c85109960e11b81529193506001600160a01b038085169263f90a21329261065f9288928e928e928e928e928b927f0000000000000000000000000000000000000000000000000000000000000000927f00000000000000000000000000000000000000000000000000000000000000009290911690600401610bc2565b5f604051808303815f87803b158015610676575f80fd5b505af1158015610688573d5f803e3d5ffd5b5050505f84815260046020526040902080546001600160a01b0319166001600160a01b038516179055508551156106db57826005876040516106ca9190610b29565b908152604051908190036020019020555b816001600160a01b0316837f9ac923d0a73e4cf4af560484be230f8b346ff35fd3bc27c5656a74dbee33c6138a8a8a8a60405161071b9493929190610c3d565b60405180910390a3509550959350505050565b6107366107ed565b5f811161077b5760405162461bcd60e51b8152602060048201526013602482015272466163746f72793a207a65726f20706172616d60681b604482015260640161039c565b60028190556040518181527fc843961aae203b4103e384dc89bfedeccdf41600f574893df7d1e691b043a6d6906020016103ef565b6107b86107ed565b6001600160a01b0381166107e157604051631e4fbdf760e01b81525f600482015260240161039c565b6107ea81610819565b50565b5f546001600160a01b031633146103485760405163118cdaa760e01b815233600482015260240161039c565b5f80546001600160a01b038381166001600160a01b0319831681178455604051919092169283917f8be0079c531659141344cd1fd0a4f28419497f9722a3daafe3b4186f6b6457e09190a35050565b5f610873825f610879565b92915050565b5f814710156108a45760405163cf47918160e01b81524760048201526024810183905260440161039c565b763d602d80600a3d3981f3363d3d373d3d3d363d730000008360601b60e81c175f526e5af43d82803e903d91602b57fd5bf38360781b176020526037600983f090506001600160a01b0381166108735760405163b06ebf3d60e01b815260040160405180910390fd5b634e487b7160e01b5f52604160045260245ffd5b5f82601f830112610930575f80fd5b813567ffffffffffffffff8082111561094b5761094b61090d565b604051601f8301601f19908116603f011681019082821181831017156109735761097361090d565b8160405283815286602085880101111561098b575f80fd5b836020870160208301375f602085830101528094505050505092915050565b5f602082840312156109ba575f80fd5b813567ffffffffffffffff8111156109d0575f80fd5b6109dc84828501610921565b949350505050565b5f602082840312156109f4575f80fd5b81356001600160a01b0381168114610a0a575f80fd5b9392505050565b602080825282518282018190525f9190848201906040850190845b81811015610a515783516001600160a01b031683529284019291840191600101610a2c565b50909695505050505050565b5f60208284031215610a6d575f80fd5b5035919050565b5f805f805f60a08688031215610a88575f80fd5b853567ffffffffffffffff80821115610a9f575f80fd5b610aab89838a01610921565b96506020880135915080821115610ac0575f80fd5b610acc89838a01610921565b95506040880135915080821115610ae1575f80fd5b50610aee88828901610921565b9598949750949560608101359550608001359392505050565b5f5b83811015610b21578181015183820152602001610b09565b50505f910152565b5f8251610b3a818460208701610b07565b9190910192915050565b634e487b7160e01b5f52601160045260245ffd5b8181038181111561087357610873610b44565b634e487b7160e01b5f52603260045260245ffd5b5f60018201610b9057610b90610b44565b5060010190565b5f8151808452610bae816020860160208601610b07565b601f01601f19169290920160200192915050565b5f6101208b8352806020840152610bdb8184018c610b97565b90508281036040840152610bef818b610b97565b90508281036060840152610c03818a610b97565b6080840198909852505060a08101949094526001600160a01b0392831660c085015290821660e08401521661010090910152949350505050565b608081525f610c4f6080830187610b97565b8281036020840152610c618187610b97565b90508281036040840152610c758186610b97565b9150508260608301529594505050505056fea2646970667358221220392ace1adafdec934de0ad4c0e056ce4ca7dde6c27deb5c9572b0bd5575fc2b464736f6c63430008180033608060405234801561000f575f80fd5b5060017f9b779b17422d0df92223018b32b4d1fa46e071723d6817e2486d003becc55f0055614353806100415f395ff3fe608060405234801562000010575f80fd5b5060043610620001c4575f3560e01c806375e51d661162000107578063be040fb0116200009f578063ef430aa61162000077578063ef430aa6146200038b578063f6d956df1462000395578063f90a213214620003ac578063f94b93c914620003c3575f80fd5b8063be040fb0146200036d578063be0bfb9c1462000377578063bfc596011462000381575f80fd5b80639d63848a11620000df5780639d63848a146200032f578063a0270dbc1462000343578063abc7177c146200035a578063b2449d651462000364575f80fd5b806375e51d6614620002f15780637dc0d1d014620003085780639b34ae03146200031c575f80fd5b80632c159a1a116200017b5780633fad9ae011620001535780633fad9ae014620002ab57806346280a8014620002c45780634ac8eb5f14620002dd5780636ed71ede14620002e7575f80fd5b80632c159a1a146200026e5780633197cbb614620002825780633f6fa655146200028c575f80fd5b8063089ef5e814620001c85780630d48344214620001e5578063156b6ba3146200020057806317716ef2146200021757806323341a0514620002435780632acf1cd21462000264575b5f80fd5b620001d2620003cd565b6040519081526020015b60405180910390f35b620001ed5f81565b60405160ff9091168152602001620001dc565b620001d262000211366004620025de565b620003e6565b5f546200022a906001600160a01b031681565b6040516001600160a01b039091168152602001620001dc565b6200024d62000453565b604051620001dc999897969594939291906200264e565b620001d2600b5481565b6001546200022a906001600160a01b031681565b620001d260065481565b600d546200029a9060ff1681565b6040519015158152602001620001dc565b620002b562000662565b604051620001dc9190620026c9565b620002db620002d5366004620026dd565b620006f6565b005b620001d2600c5481565b620001d260085481565b620001d262000302366004620025de565b62000ba1565b6003546200022a906001600160a01b031681565b600d54620001ed90610100900460ff1681565b6002546200022a906001600160a01b031681565b620002db6200035436600462002710565b62000c2f565b620001d260075481565b620001ed600181565b620002db62000da4565b620001d26200102d565b620001d2600a5481565b620002b562001041565b620002db620003a6366004620026dd565b62001050565b620002db620003bd366004620027e8565b620013b9565b620002b562001509565b5f620003e1600a54600b5460075462001518565b905090565b5f8060ff8416600114620003fd57600a546200040d565b82600a546200040d9190620028db565b90505f60ff8516156200042357600b5462000433565b83600b54620004339190620028db565b90506200044a600a54600b5484846007546200156f565b95945050505050565b60608060605f805f805f80600460056009600654600a54600b54600c54600d5f9054906101000a900460ff16600d60019054906101000a900460ff168880546200049d90620028f1565b80601f0160208091040260200160405190810160405280929190818152602001828054620004cb90620028f1565b80156200051a5780601f10620004f0576101008083540402835291602001916200051a565b820191905f5260205f20905b815481529060010190602001808311620004fc57829003601f168201915b505050505098508780546200052f90620028f1565b80601f01602080910402602001604051908101604052809291908181526020018280546200055d90620028f1565b8015620005ac5780601f106200058257610100808354040283529160200191620005ac565b820191905f5260205f20905b8154815290600101906020018083116200058e57829003601f168201915b50505050509750868054620005c190620028f1565b80601f0160208091040260200160405190810160405280929190818152602001828054620005ef90620028f1565b80156200063e5780601f1062000614576101008083540402835291602001916200063e565b820191905f5260205f20905b8154815290600101906020018083116200062057829003601f168201915b50505050509650985098509850985098509850985098509850909192939495969798565b600480546200067190620028f1565b80601f01602080910402602001604051908101604052809291908181526020018280546200069f90620028f1565b8015620006ee5780601f10620006c457610100808354040283529160200191620006ee565b820191905f5260205f20905b815481529060010190602001808311620006d057829003601f168201915b505050505081565b62000700620015fa565b600154604051633af32abf60e01b81523360048201526001600160a01b0390911690633af32abf90602401602060405180830381865afa15801562000747573d5f803e3d5ffd5b505050506040513d601f19601f820116820180604052508101906200076d919062002925565b620007bf5760405162461bcd60e51b815260206004820152601b60248201527f504d3a206e6f7420476f6f64446f6c6c6172207665726966696564000000000060448201526064015b60405180910390fd5b600d5460ff1615620008035760405162461bcd60e51b815260206004820152600c60248201526b14134e881c995cdbdb1d995960a21b6044820152606401620007b6565b60065442106200084b5760405162461bcd60e51b815260206004820152601260248201527114134e881d1c98591a5b99c818db1bdcd95960721b6044820152606401620007b6565b60ff831615806200085f575060ff83166001145b6200087e5760405162461bcd60e51b8152600401620007b69062002946565b5f8211620008c15760405162461bcd60e51b815260206004820152600f60248201526e504d3a207a65726f2073686172657360881b6044820152606401620007b6565b600254604051627eeac760e11b815233600482015260ff8516602482015283916001600160a01b03169062fdd58e90604401602060405180830381865afa1580156200090f573d5f803e3d5ffd5b505050506040513d601f19601f8201168201806040525081019062000935919062002973565b1015620009855760405162461bcd60e51b815260206004820152601760248201527f504d3a20696e73756666696369656e74207368617265730000000000000000006044820152606401620007b6565b600a54600b545f1960ff861601620009b65783600a5f828254620009aa91906200298b565b90915550620009cf9050565b83600b5f828254620009c991906200298b565b90915550505b5f620009df83836007546200161b565b90505f620009f5600a54600b546007546200161b565b90505f62000a0482846200298b565b90508581101562000a505760405162461bcd60e51b815260206004820152601560248201527414134e881cdb1a5c1c1859d948195e18d959591959605a1b6044820152606401620007b6565b600c5481111562000aa45760405162461bcd60e51b815260206004820152601b60248201527f504d3a20696e73756666696369656e7420636f6c6c61746572616c00000000006044820152606401620007b6565b80600c5f82825462000ab791906200298b565b909155505060025460405163a29b3f5b60e01b815233600482015260ff8a166024820152604481018990526001600160a01b039091169063a29b3f5b906064015f604051808303815f87803b15801562000b0f575f80fd5b505af115801562000b22573d5f803e3d5ffd5b50505f5462000b3f92506001600160a01b03169050338362001666565b604080518881526020810183905260ff8a169133917faa68026cba73386b81aaef0208a11ad1c3f8d1306cf0734631f076b7baea05ba910160405180910390a3505050505062000b9c60015f80516020620042fe83398151915255565b505050565b5f8060ff841660011462000bb857600a5462000bc8565b82600a5462000bc891906200298b565b90505f60ff85161562000bde57600b5462000bee565b83600b5462000bee91906200298b565b90505f62000c04600a54600b546007546200161b565b90505f62000c1684846007546200161b565b905062000c2481836200298b565b979650505050505050565b6003546001600160a01b0316331462000c7c5760405162461bcd60e51b815260206004820152600e60248201526d504d3a206e6f74206f7261636c6560901b6044820152606401620007b6565b600d5460ff161562000cc85760405162461bcd60e51b815260206004820152601460248201527314134e88185b1c9958591e481c995cdbdb1d995960621b6044820152606401620007b6565b60065442101562000d0c5760405162461bcd60e51b815260206004820152600d60248201526c504d3a20746f6f206561726c7960981b6044820152606401620007b6565b60ff8116158062000d20575060ff81166001145b62000d3f5760405162461bcd60e51b8152600401620007b69062002946565b600d805460ff83166101000261ffff199091161760011790556040517fcbbe35de088a5a787855818a0fda296aeb95f616e7b99c7dcb0bf96b5697e22b9062000d99908390429060ff929092168252602082015260400190565b60405180910390a150565b62000dae620015fa565b600d5460ff1662000df55760405162461bcd60e51b815260206004820152601060248201526f14134e881b9bdd081c995cdbdb1d995960821b6044820152606401620007b6565b600254600d54604051627eeac760e11b815233600482015261010090910460ff1660248201525f916001600160a01b03169062fdd58e90604401602060405180830381865afa15801562000e4b573d5f803e3d5ffd5b505050506040513d601f19601f8201168201806040525081019062000e71919062002973565b90505f811162000ebc5760405162461bcd60e51b8152602060048201526015602482015274504d3a206e6f2077696e6e696e672073686172657360581b6044820152606401620007b6565b600d545f90610100900460ff1660011462000eda57600b5462000ede565b600a545b90505f811162000f315760405162461bcd60e51b815260206004820152601b60248201527f504d3a206e6f2077696e6e696e672073686172657320657869737400000000006044820152606401620007b6565b5f81600c548462000f439190620029a1565b62000f4f9190620029cf565b600254600d5460405163a29b3f5b60e01b815233600482015261010090910460ff166024820152604481018690529192506001600160a01b03169063a29b3f5b906064015f604051808303815f87803b15801562000fab575f80fd5b505af115801562000fbe573d5f803e3d5ffd5b50505f5462000fdb92506001600160a01b03169050338362001666565b60405181815233907f4896181ff8f4543cc00db9fe9b6fb7e6f032b7eb772c72ab1ec1b4d2e03b93699060200160405180910390a25050506200102b60015f80516020620042fe83398151915255565b565b5f620003e1600a54600b546007546200169f565b600580546200067190620028f1565b6200105a620015fa565b600154604051633af32abf60e01b81523360048201526001600160a01b0390911690633af32abf90602401602060405180830381865afa158015620010a1573d5f803e3d5ffd5b505050506040513d601f19601f82011682018060405250810190620010c7919062002925565b620011155760405162461bcd60e51b815260206004820152601b60248201527f504d3a206e6f7420476f6f64446f6c6c617220766572696669656400000000006044820152606401620007b6565b600d5460ff1615620011595760405162461bcd60e51b815260206004820152600c60248201526b14134e881c995cdbdb1d995960a21b6044820152606401620007b6565b6006544210620011a15760405162461bcd60e51b815260206004820152601260248201527114134e881d1c98591a5b99c818db1bdcd95960721b6044820152606401620007b6565b60ff83161580620011b5575060ff83166001145b620011d45760405162461bcd60e51b8152600401620007b69062002946565b5f8211620012175760405162461bcd60e51b815260206004820152600f60248201526e504d3a207a65726f2073686172657360881b6044820152606401620007b6565b600a54600b545f1960ff861601620012485783600a5f8282546200123c9190620028db565b90915550620012619050565b83600b5f8282546200125b9190620028db565b90915550505b5f620012778383600a54600b546007546200156f565b905083811115620012c35760405162461bcd60e51b815260206004820152601560248201527414134e881cdb1a5c1c1859d948195e18d959591959605a1b6044820152606401620007b6565b80600c5f828254620012d69190620028db565b90915550505f54620012f4906001600160a01b0316333084620016c9565b600254604051632769c3d960e11b815233600482015260ff88166024820152604481018790526001600160a01b0390911690634ed387b2906064015f604051808303815f87803b15801562001347575f80fd5b505af11580156200135a573d5f803e3d5ffd5b5050604080518881526020810185905260ff8a1693503392507f638452e55d76192e901f7b3905525c060a66bb433db71a5621483edb8bab4a26910160405180910390a350505062000b9c60015f80516020620042fe83398151915255565b600d5462010000900460ff1615620014145760405162461bcd60e51b815260206004820152601760248201527f504d3a20616c726561647920696e697469616c697a65640000000000000000006044820152606401620007b6565b600d805462ff00001916620100001790556008899055600462001438898262002a34565b50600562001447888262002a34565b50600962001456878262002a34565b50600685905560078490555f80546001600160a01b038086166001600160a01b03199283161790925560018054858416908316179055600380549284169290911691909117905560405188903090620014af90620025ba565b620014bc92919062002b01565b604051809103905ff080158015620014d6573d5f803e3d5ffd5b50600280546001600160a01b0319166001600160a01b0392909216919091179055505050600a819055600b555050505050565b600980546200067190620028f1565b5f8181620015336200152d83885b9062001709565b620017e3565b90505f620015466200152d848862001526565b90505f6200156162001559848462001857565b849062001709565b9450505050505b9392505050565b5f806200157e8585856200161b565b90505f6200158e8888866200161b565b905080821015620015e25760405162461bcd60e51b815260206004820152601960248201527f4c4d53523a206e6567617469766520747261646520636f7374000000000000006044820152606401620007b6565b620015ee81836200298b565b98975050505050505050565b6200160462001871565b60025f80516020620042fe83398151915255565b90565b5f81816200162e6200152d838862001526565b90505f620016416200152d848862001526565b90505f620015616200165e62001658858562001857565b620018a2565b8590620018e0565b62001675838383600162001987565b62000b9c57604051635274afe760e01b81526001600160a01b0384166004820152602401620007b6565b5f620016ad84848462001518565b620016c190670de0b6b3a76400006200298b565b949350505050565b620016d9848484846001620019eb565b6200170357604051635274afe760e01b81526001600160a01b0385166004820152602401620007b6565b50505050565b5f8282600160ff1b821480620017225750600160ff1b81145b1562001741576040516309fe2b4560e41b815260040160405180910390fd5b5f805f841262001752578362001756565b835f035b91505f83126200176757826200176b565b825f035b90505f6200178383670de0b6b3a76400008462001a5a565b90506001600160ff1b03811115620017b95760405163d49c26b360e01b81526004810189905260248101889052604401620007b6565b5f1985851813620017d681620017d257825f0362001618565b8290565b9998505050505050505050565b5f8168023f2fa8f6da5b9d31198112156200180057505f92915050565b680736ea4425c11ac6308113156200182f5760405163ca7ec0c560e01b815260048101849052602401620007b6565b6714057b7ef767814f8102620016c162001851670de0b6b3a7640000835b0590565b62001b30565b5f6200186862001618838562002b2c565b90505b92915050565b5f80516020620042fe833981519152546002036200102b57604051633ee5aeb560e01b815260040160405180910390fd5b5f6200186b6714057b7ef767814f670de0b6b3a7640000620018c8620016188662001be6565b620018d4919062002b56565b62001618919062002b8b565b5f8282600160ff1b821480620018f95750600160ff1b81145b15620019185760405163a6070c2560e01b815260040160405180910390fd5b5f805f84126200192957836200192d565b835f035b91505f83126200193e578262001942565b825f035b90505f62001951838362001d5c565b90506001600160ff1b03811115620017b95760405163120b5b4360e01b81526004810189905260248101889052604401620007b6565b60405163a9059cbb60e01b5f8181526001600160a01b038616600452602485905291602083604481808b5af1925060015f51148316620019df578383151615620019d3573d5f823e3d81fd5b5f873b113d1516831692505b60405250949350505050565b6040516323b872dd60e01b5f8181526001600160a01b038781166004528616602452604485905291602083606481808c5af1925060015f5114831662001a4957838315161562001a3d573d5f823e3d81fd5b5f883b113d1516831692505b604052505f60605295945050505050565b5f80805f19858709858702925082811083820303915050805f0362001a965783828162001a8b5762001a8b620029bb565b049250505062001568565b83811062001ac957604051630c740aef60e31b8152600481018790526024810186905260448101859052606401620007b6565b5f8486880960026001871981018816978890046003810283188082028403028082028403028082028403028082028403028082028403029081029092039091025f889003889004909101858311909403939093029303949094049190911702949350505050565b5f818181121562001b945768033dd1780914b971141981121562001b5657505f92915050565b62001b8c62001b6c6200161862001851845f0390565b6ec097ce7bc90715b34b9f1000000000816200184d576200184d620029bb565b915062001be0565b680a688906bd8affffff81131562001bc257604051626c1a0560e31b815260048101849052602401620007b6565b670de0b6b3a7640000604082901b05620016c1620016188262001e12565b50919050565b5f8181811362001c0d5760405163059b101b60e01b815260048101849052602401620007b6565b5f670de0b6b3a7640000821262001c275750600162001c4f565b505f19816ec097ce7bc90715b34b9f10000000008162001c4b5762001c4b620029bb565b0591505b5f62001cdb670de0b6b3a7640000840560016fffffffffffffffffffffffffffffffff821160071b91821c67ffffffffffffffff811160061b90811c63ffffffff811160051b90811c61ffff811160041b90811c60ff8111600390811b91821c600f811160021b90811c918211871b91821c969096119490961792909217171791909117919091171790565b9050670de0b6b3a7640000810283821d670de0b6b3a763ffff19810162001d055781840262000c24565b671bc16d674ec800006706f05b59d3b200005b5f81131562001d4d57670de0b6b3a764000083800205925081831262001d44579283019260019290921d915b60011d62001d18565b50505091909102949350505050565b5f80805f19848609848602925082811083820303915050805f0362001d8f5750670de0b6b3a7640000900490506200186b565b670de0b6b3a7640000811062001dc357604051635173648d60e01b81526004810186905260248101859052604401620007b6565b5f670de0b6b3a764000085870962040000818503049310909103600160ee1b02919091177faccb18165bd6fe31ae1cf318dc5b51eee0e1ba569b88cd74c1773b91fac106690291505092915050565b600160bf1b67ff0000000000000082161562001f285767800000000000000082161562001e485768016a09e667f3bcc9090260401c5b67400000000000000082161562001e68576801306fe0a31b7152df0260401c5b67200000000000000082161562001e88576801172b83c7d517adce0260401c5b67100000000000000082161562001ea85768010b5586cf9890f62a0260401c5b67080000000000000082161562001ec8576801059b0d31585743ae0260401c5b67040000000000000082161562001ee857680102c9a3e778060ee70260401c5b67020000000000000082161562001f085768010163da9fb33356d80260401c5b67010000000000000082161562001f2857680100b1afa5abcbed610260401c5b66ff0000000000008216156200203057668000000000000082161562001f575768010058c86da1c09ea20260401c5b664000000000000082161562001f76576801002c605e2e8cec500260401c5b662000000000000082161562001f9557680100162f3904051fa10260401c5b661000000000000082161562001fb4576801000b175effdc76ba0260401c5b660800000000000082161562001fd357680100058ba01fb9f96d0260401c5b660400000000000082161562001ff25768010002c5cc37da94920260401c5b660200000000000082161562002011576801000162e525ee05470260401c5b6601000000000000821615620020305768010000b17255775c040260401c5b65ff00000000008216156200212f57658000000000008216156200205d576801000058b91b5bc9ae0260401c5b654000000000008216156200207b57680100002c5c89d5ec6d0260401c5b65200000000000821615620020995768010000162e43f4f8310260401c5b65100000000000821615620020b757680100000b1721bcfc9a0260401c5b65080000000000821615620020d55768010000058b90cf1e6e0260401c5b65040000000000821615620020f3576801000002c5c863b73f0260401c5b650200000000008216156200211157680100000162e430e5a20260401c5b650100000000008216156200212f576801000000b1721835510260401c5b64ff0000000082161562002225576480000000008216156200215a57680100000058b90c0b490260401c5b644000000000821615620021775768010000002c5c8601cc0260401c5b64200000000082161562002194576801000000162e42fff00260401c5b641000000000821615620021b15768010000000b17217fbb0260401c5b640800000000821615620021ce576801000000058b90bfce0260401c5b640400000000821615620021eb57680100000002c5c85fe30260401c5b640200000000821615620022085768010000000162e42ff10260401c5b6401000000008216156200222557680100000000b17217f80260401c5b63ff000000821615620023125763800000008216156200224e5768010000000058b90bfc0260401c5b63400000008216156200226a576801000000002c5c85fe0260401c5b63200000008216156200228657680100000000162e42ff0260401c5b6310000000821615620022a2576801000000000b17217f0260401c5b6308000000821615620022be57680100000000058b90c00260401c5b6304000000821615620022da5768010000000002c5c8600260401c5b6302000000821615620022f6576801000000000162e4300260401c5b6301000000821615620023125768010000000000b172180260401c5b62ff0000821615620023f6576280000082161562002339576801000000000058b90c0260401c5b624000008216156200235457680100000000002c5c860260401c5b622000008216156200236f5768010000000000162e430260401c5b621000008216156200238a57680100000000000b17210260401c5b62080000821615620023a55768010000000000058b910260401c5b62040000821615620023c0576801000000000002c5c80260401c5b62020000821615620023db57680100000000000162e40260401c5b62010000821615620023f6576801000000000000b1720260401c5b61ff00821615620024d1576180008216156200241b57680100000000000058b90260401c5b614000821615620024355768010000000000002c5d0260401c5b6120008216156200244f576801000000000000162e0260401c5b611000821615620024695768010000000000000b170260401c5b61080082161562002483576801000000000000058c0260401c5b6104008216156200249d57680100000000000002c60260401c5b610200821615620024b757680100000000000001630260401c5b610100821615620024d157680100000000000000b10260401c5b60ff821615620025a3576080821615620024f457680100000000000000590260401c5b60408216156200250d576801000000000000002c0260401c5b60208216156200252657680100000000000000160260401c5b60108216156200253f576801000000000000000b0260401c5b60088216156200255857680100000000000000060260401c5b60048216156200257157680100000000000000030260401c5b60028216156200258a57680100000000000000010260401c5b6001821615620025a357680100000000000000010260401c5b670de0b6b3a76400000260409190911c60bf031c90565b6117408062002bbe83390190565b803560ff81168114620025d9575f80fd5b919050565b5f8060408385031215620025f0575f80fd5b620025fb83620025c8565b946020939093013593505050565b5f81518084525f5b818110156200262f5760208185018101518683018201520162002611565b505f602082860101526020601f19601f83011685010191505092915050565b5f610120808352620026638184018d62002609565b9050828103602084015262002679818c62002609565b905082810360408401526200268f818b62002609565b60608401999099525050608081019590955260a085019390935260c0840191909152151560e083015260ff16610100909101529392505050565b602081525f62001868602083018462002609565b5f805f60608486031215620026f0575f80fd5b620026fb84620025c8565b95602085013595506040909401359392505050565b5f6020828403121562002721575f80fd5b6200186882620025c8565b634e487b7160e01b5f52604160045260245ffd5b5f82601f83011262002750575f80fd5b813567ffffffffffffffff808211156200276e576200276e6200272c565b604051601f8301601f19908116603f011681019082821181831017156200279957620027996200272c565b81604052838152866020858801011115620027b2575f80fd5b836020870160208301375f602085830101528094505050505092915050565b80356001600160a01b0381168114620025d9575f80fd5b5f805f805f805f805f6101208a8c03121562002802575f80fd5b8935985060208a013567ffffffffffffffff8082111562002821575f80fd5b6200282f8d838e0162002740565b995060408c013591508082111562002845575f80fd5b620028538d838e0162002740565b985060608c013591508082111562002869575f80fd5b50620028788c828d0162002740565b96505060808a0135945060a08a013593506200289760c08b01620027d1565b9250620028a760e08b01620027d1565b9150620028b86101008b01620027d1565b90509295985092959850929598565b634e487b7160e01b5f52601160045260245ffd5b808201808211156200186b576200186b620028c7565b600181811c908216806200290657607f821691505b60208210810362001be057634e487b7160e01b5f52602260045260245ffd5b5f6020828403121562002936575f80fd5b8151801515811462001568575f80fd5b602080825260139082015272504d3a20696e76616c6964206f7574636f6d6560681b604082015260600190565b5f6020828403121562002984575f80fd5b5051919050565b818103818111156200186b576200186b620028c7565b80820281158282048414176200186b576200186b620028c7565b634e487b7160e01b5f52601260045260245ffd5b5f82620029e057620029e0620029bb565b500490565b601f82111562000b9c57805f5260205f20601f840160051c8101602085101562002a0c5750805b601f840160051c820191505b8181101562002a2d575f815560010162002a18565b5050505050565b815167ffffffffffffffff81111562002a515762002a516200272c565b62002a698162002a628454620028f1565b84620029e5565b602080601f83116001811462002a9f575f841562002a875750858301515b5f19600386901b1c1916600185901b17855562002af9565b5f85815260208120601f198616915b8281101562002acf5788860151825594840194600190910190840162002aae565b508582101562002aed57878501515f19600388901b60f8161c191681555b505060018460011b0185555b505050505050565b604081525f62002b15604083018562002609565b905060018060a01b03831660208301529392505050565b8082018281125f83128015821682158216171562002b4e5762002b4e620028c7565b505092915050565b8082025f8212600160ff1b8414161562002b745762002b74620028c7565b81810583148215176200186b576200186b620028c7565b5f8262002b9c5762002b9c620029bb565b600160ff1b82145f198414161562002bb85762002bb8620028c7565b50059056fe608060405234801562000010575f80fd5b506040516200174038038062001740833981016040819052620000339162000133565b60408051602081019091525f815281906200004e81620000a0565b506001600160a01b0381166200007d57604051631e4fbdf760e01b81525f600482015260240160405180910390fd5b6200008881620000b2565b5060046200009783826200029e565b5050506200036a565b6002620000ae82826200029e565b5050565b600380546001600160a01b038381166001600160a01b0319831681179093556040519116919082907f8be0079c531659141344cd1fd0a4f28419497f9722a3daafe3b4186f6b6457e0905f90a35050565b634e487b7160e01b5f52604160045260245ffd5b80516001600160a01b03811681146200012e575f80fd5b919050565b5f806040838503121562000145575f80fd5b82516001600160401b03808211156200015c575f80fd5b818501915085601f83011262000170575f80fd5b81518181111562000185576200018562000103565b604051601f8201601f19908116603f01168101908382118183101715620001b057620001b062000103565b81604052828152602093508884848701011115620001cc575f80fd5b5f91505b82821015620001ef5784820184015181830185015290830190620001d0565b5f8484830101528096505050506200020981860162000117565b925050509250929050565b600181811c908216806200022957607f821691505b6020821081036200024857634e487b7160e01b5f52602260045260245ffd5b50919050565b601f8211156200029957805f5260205f20601f840160051c81016020851015620002755750805b601f840160051c820191505b8181101562000296575f815560010162000281565b50505b505050565b81516001600160401b03811115620002ba57620002ba62000103565b620002d281620002cb845462000214565b846200024e565b602080601f83116001811462000308575f8415620002f05750858301515b5f19600386901b1c1916600185901b17855562000362565b5f85815260208120601f198616915b82811015620003385788860151825594840194600190910190840162000317565b50858210156200035657878501515f19600388901b60f8161c191681555b505060018460011b0185555b505050505050565b6113c880620003785f395ff3fe608060405234801561000f575f80fd5b50600436106100fa575f3560e01c8063715018a611610093578063b2449d6511610063578063b2449d6514610219578063e985e9c514610221578063f242432a1461025c578063f2fde38b1461026f575f80fd5b8063715018a6146101d05780638da5cb5b146101d8578063a22cb465146101f3578063a29b3f5b14610206575f80fd5b80630e89341c116100ce5780630e89341c146101755780632eb2c2d6146101885780634e1273f41461019d5780634ed387b2146101bd575f80fd5b8062fdd58e146100fe57806301ffc9a714610124578063066f69af146101475780630d4834421461015c575b5f80fd5b61011161010c366004610d66565b610282565b6040519081526020015b60405180910390f35b610137610132366004610da3565b6102a9565b604051901515815260200161011b565b61014f6102f8565b60405161011b9190610e08565b6101635f81565b60405160ff909116815260200161011b565b61014f610183366004610e1a565b610384565b61019b610196366004610f71565b6103cd565b005b6101b06101ab366004611014565b6103ec565b60405161011b9190611108565b61019b6101cb36600461111a565b6104bc565b61019b6104e6565b6003546040516001600160a01b03909116815260200161011b565b61019b61020136600461115b565b6104f9565b61019b61021436600461111a565b610508565b610163600181565b61013761022f366004611194565b6001600160a01b039182165f90815260016020908152604080832093909416825291909152205460ff1690565b61019b61026a3660046111c5565b61051e565b61019b61027d366004611225565b610534565b5f818152602081815260408083206001600160a01b03861684529091529020545b92915050565b5f6001600160e01b03198216636cdb3d1360e11b14806102d957506001600160e01b031982166303a24d0760e21b145b806102a357506301ffc9a760e01b6001600160e01b03198316146102a3565b600480546103059061123e565b80601f01602080910402602001604051908101604052809291908181526020018280546103319061123e565b801561037c5780601f106103535761010080835404028352916020019161037c565b820191905f5260205f20905b81548152906001019060200180831161035f57829003601f168201915b505050505081565b6060600182146103ae57604051806040016040528060028152602001616e6f60f01b8152506102a3565b505060408051808201909152600381526279657360e81b602082015290565b6103d8335b86610571565b6103e585858585856105e9565b5050505050565b606081518351146104225781518351604051635b05999160e01b8152600481019290925260248201526044015b60405180910390fd5b5f835167ffffffffffffffff81111561043d5761043d610e31565b604051908082528060200260200182016040528015610466578160200160208202803683370190505b5090505f5b84518110156104b45760208082028601015161048f90602080840287010151610282565b8282815181106104a1576104a1611276565b602090810291909101015260010161046b565b509392505050565b6104c4610649565b6104e1838360ff168360405180602001604052805f815250610676565b505050565b6104ee610649565b6104f75f6106da565b565b61050433838361072b565b5050565b610510610649565b6104e1838360ff16836107e8565b610527336103d2565b6103e5858585858561084f565b61053c610649565b6001600160a01b03811661056557604051631e4fbdf760e01b81525f6004820152602401610419565b61056e816106da565b50565b816001600160a01b0316816001600160a01b0316141580156105b857506001600160a01b038082165f9081526001602090815260408083209386168352929052205460ff16155b156105045760405163711bec9160e11b81526001600160a01b03808416600483015282166024820152604401610419565b6001600160a01b03841661061257604051632bfa23e760e11b81525f6004820152602401610419565b6001600160a01b03851661063a57604051626a0d4560e21b81525f6004820152602401610419565b6103e5858585858560016108dc565b6003546001600160a01b031633146104f75760405163118cdaa760e01b8152336004820152602401610419565b6001600160a01b03841661069f57604051632bfa23e760e11b81525f6004820152602401610419565b604080516001808252602082018690528183019081526060820185905260808201909252906106d25f87848487846108dc565b505050505050565b600380546001600160a01b038381166001600160a01b0319831681179093556040519116919082907f8be0079c531659141344cd1fd0a4f28419497f9722a3daafe3b4186f6b6457e0905f90a35050565b6001600160a01b03831661075457604051631f18c42760e11b81525f6004820152602401610419565b6001600160a01b03821661077c5760405162ced3e160e81b81525f6004820152602401610419565b6001600160a01b038381165f81815260016020908152604080832094871680845294825291829020805460ff191686151590811790915591519182527f17307eab39ab6107e8899845ad3d59bd9653f200f220920489ca2b5937696c31910160405180910390a3505050565b6001600160a01b03831661081057604051626a0d4560e21b81525f6004820152602401610419565b604080516001808252602082018590528183019081526060820184905260a082019092525f608082018181529192916103e591879185908590836108dc565b6001600160a01b03841661087857604051632bfa23e760e11b81525f6004820152602401610419565b6001600160a01b0385166108a057604051626a0d4560e21b81525f6004820152602401610419565b604080516001808252602082018690528183019081526060820185905260808201909252906108d387878484875f6108dc565b50505050505050565b6108e886868686610934565b6001600160a01b038516156106d2573381156109115761090c818888888888610b43565b6108d3565b60208581015190850151610929838a8a85858a610c64565b505050505050505050565b80518251146109635781518151604051635b05999160e01b815260048101929092526024820152604401610419565b335f5b8351811015610a65576020818102858101820151908501909101516001600160a01b03881615610a17575f828152602081815260408083206001600160a01b038c168452909152902054818110156109f1576040516303dee4c560e01b81526001600160a01b038a166004820152602481018290526044810183905260648101849052608401610419565b5f838152602081815260408083206001600160a01b038d16845290915290209082900390555b6001600160a01b03871615610a5b575f828152602081815260408083206001600160a01b038b16845290915281208054839290610a5590849061128a565b90915550505b5050600101610966565b508251600103610ae55760208301515f906020840151909150856001600160a01b0316876001600160a01b0316846001600160a01b03167fc3d58168c5ae7397731d063d5bbf3d657854427343f4c083240f7aacaa2d0f628585604051610ad6929190918252602082015260400190565b60405180910390a450506103e5565b836001600160a01b0316856001600160a01b0316826001600160a01b03167f4a39dc06d4c0dbc64b70af90fd698a233a518aa5d07e595d983b8c0526c8f7fb8686604051610b349291906112a9565b60405180910390a45050505050565b6001600160a01b0384163b156106d25760405163bc197c8160e01b81526001600160a01b0385169063bc197c8190610b8790899089908890889088906004016112d6565b6020604051808303815f875af1925050508015610bc1575060408051601f3d908101601f19168201909252610bbe91810190611333565b60015b610c28573d808015610bee576040519150601f19603f3d011682016040523d82523d5f602084013e610bf3565b606091505b5080515f03610c2057604051632bfa23e760e11b81526001600160a01b0386166004820152602401610419565b805160208201fd5b6001600160e01b0319811663bc197c8160e01b146108d357604051632bfa23e760e11b81526001600160a01b0386166004820152602401610419565b6001600160a01b0384163b156106d25760405163f23a6e6160e01b81526001600160a01b0385169063f23a6e6190610ca8908990899088908890889060040161134e565b6020604051808303815f875af1925050508015610ce2575060408051601f3d908101601f19168201909252610cdf91810190611333565b60015b610d0f573d808015610bee576040519150601f19603f3d011682016040523d82523d5f602084013e610bf3565b6001600160e01b0319811663f23a6e6160e01b146108d357604051632bfa23e760e11b81526001600160a01b0386166004820152602401610419565b80356001600160a01b0381168114610d61575f80fd5b919050565b5f8060408385031215610d77575f80fd5b610d8083610d4b565b946020939093013593505050565b6001600160e01b03198116811461056e575f80fd5b5f60208284031215610db3575f80fd5b8135610dbe81610d8e565b9392505050565b5f81518084525f5b81811015610de957602081850181015186830182015201610dcd565b505f602082860101526020601f19601f83011685010191505092915050565b602081525f610dbe6020830184610dc5565b5f60208284031215610e2a575f80fd5b5035919050565b634e487b7160e01b5f52604160045260245ffd5b604051601f8201601f1916810167ffffffffffffffff81118282101715610e6e57610e6e610e31565b604052919050565b5f67ffffffffffffffff821115610e8f57610e8f610e31565b5060051b60200190565b5f82601f830112610ea8575f80fd5b81356020610ebd610eb883610e76565b610e45565b8083825260208201915060208460051b870101935086841115610ede575f80fd5b602086015b84811015610efa5780358352918301918301610ee3565b509695505050505050565b5f82601f830112610f14575f80fd5b813567ffffffffffffffff811115610f2e57610f2e610e31565b610f41601f8201601f1916602001610e45565b818152846020838601011115610f55575f80fd5b816020850160208301375f918101602001919091529392505050565b5f805f805f60a08688031215610f85575f80fd5b610f8e86610d4b565b9450610f9c60208701610d4b565b9350604086013567ffffffffffffffff80821115610fb8575f80fd5b610fc489838a01610e99565b94506060880135915080821115610fd9575f80fd5b610fe589838a01610e99565b93506080880135915080821115610ffa575f80fd5b5061100788828901610f05565b9150509295509295909350565b5f8060408385031215611025575f80fd5b823567ffffffffffffffff8082111561103c575f80fd5b818501915085601f83011261104f575f80fd5b8135602061105f610eb883610e76565b82815260059290921b8401810191818101908984111561107d575f80fd5b948201945b838610156110a25761109386610d4b565b82529482019490820190611082565b965050860135925050808211156110b7575f80fd5b506110c485828601610e99565b9150509250929050565b5f815180845260208085019450602084015f5b838110156110fd578151875295820195908201906001016110e1565b509495945050505050565b602081525f610dbe60208301846110ce565b5f805f6060848603121561112c575f80fd5b61113584610d4b565b9250602084013560ff8116811461114a575f80fd5b929592945050506040919091013590565b5f806040838503121561116c575f80fd5b61117583610d4b565b915060208301358015158114611189575f80fd5b809150509250929050565b5f80604083850312156111a5575f80fd5b6111ae83610d4b565b91506111bc60208401610d4b565b90509250929050565b5f805f805f60a086880312156111d9575f80fd5b6111e286610d4b565b94506111f060208701610d4b565b93506040860135925060608601359150608086013567ffffffffffffffff811115611219575f80fd5b61100788828901610f05565b5f60208284031215611235575f80fd5b610dbe82610d4b565b600181811c9082168061125257607f821691505b60208210810361127057634e487b7160e01b5f52602260045260245ffd5b50919050565b634e487b7160e01b5f52603260045260245ffd5b808201808211156102a357634e487b7160e01b5f52601160045260245ffd5b604081525f6112bb60408301856110ce565b82810360208401526112cd81856110ce565b95945050505050565b6001600160a01b0386811682528516602082015260a0604082018190525f90611301908301866110ce565b828103606084015261131381866110ce565b905082810360808401526113278185610dc5565b98975050505050505050565b5f60208284031215611343575f80fd5b8151610dbe81610d8e565b6001600160a01b03868116825285166020820152604081018490526060810183905260a0608082018190525f9061138790830184610dc5565b97965050505050505056fea264697066735822122012c37d5943aa675e7d3bbf715341a6e583534fb83e1a34e9f7d9d7489b31f9a964736f6c634300081800339b779b17422d0df92223018b32b4d1fa46e071723d6817e2486d003becc55f00a2646970667358221220ad7abe976bb3d757293b6f19d4fc83944e1be47a8126379f6a67d2c8747ad28c64736f6c63430008180033","linkReferences":{}},"methodIdentifiers":{"createMarket(string,string,string,uint256,uint256)":"d604b160","defaultLiquidityParam()":"c6373fc8","externalIdToMarket(string)":"13266b39","gDollar()":"17716ef2","getAllMarkets()":"b0772d0b","getMarket(uint256)":"eb44fdd3","getMarketByExternalId(string)":"067d9c00","identity()":"2c159a1a","implementation()":"5c60da1b","marketCount()":"ec979082","markets(uint256)":"b1283e77","oracle()":"7dc0d1d0","owner()":"8da5cb5b","renounceOwnership()":"715018a6","setDefaultLiquidityParam(uint256)":"ec041970","setOracle(address)":"7adbf973","transferOwnership(address)":"f2fde38b"},"id":82}