{"abi":[{"type":"constructor","inputs":[{"name":"question","type":"string","internalType":"string"},{"name":"market","type":"address","internalType":"address"}],"stateMutability":"nonpayable"},{"type":"function","name":"NO","inputs":[],"outputs":[{"name":"","type":"uint8","internalType":"uint8"}],"stateMutability":"view"},{"type":"function","name":"YES","inputs":[],"outputs":[{"name":"","type":"uint8","internalType":"uint8"}],"stateMutability":"view"},{"type":"function","name":"balanceOf","inputs":[{"name":"account","type":"address","internalType":"address"},{"name":"id","type":"uint256","internalType":"uint256"}],"outputs":[{"name":"","type":"uint256","internalType":"uint256"}],"stateMutability":"view"},{"type":"function","name":"balanceOfBatch","inputs":[{"name":"accounts","type":"address[]","internalType":"address[]"},{"name":"ids","type":"uint256[]","internalType":"uint256[]"}],"outputs":[{"name":"","type":"uint256[]","internalType":"uint256[]"}],"stateMutability":"view"},{"type":"function","name":"burn","inputs":[{"name":"from","type":"address","internalType":"address"},{"name":"outcome","type":"uint8","internalType":"uint8"},{"name":"amount","type":"uint256","internalType":"uint256"}],"outputs":[],"stateMutability":"nonpayable"},{"type":"function","name":"isApprovedForAll","inputs":[{"name":"account","type":"address","internalType":"address"},{"name":"operator","type":"address","internalType":"address"}],"outputs":[{"name":"","type":"bool","internalType":"bool"}],"stateMutability":"view"},{"type":"function","name":"marketQuestion","inputs":[],"outputs":[{"name":"","type":"string","internalType":"string"}],"stateMutability":"view"},{"type":"function","name":"mint","inputs":[{"name":"to","type":"address","internalType":"address"},{"name":"outcome","type":"uint8","internalType":"uint8"},{"name":"amount","type":"uint256","internalType":"uint256"}],"outputs":[],"stateMutability":"nonpayable"},{"type":"function","name":"owner","inputs":[],"outputs":[{"name":"","type":"address","internalType":"address"}],"stateMutability":"view"},{"type":"function","name":"renounceOwnership","inputs":[],"outputs":[],"stateMutability":"nonpayable"},{"type":"function","name":"safeBatchTransferFrom","inputs":[{"name":"from","type":"address","internalType":"address"},{"name":"to","type":"address","internalType":"address"},{"name":"ids","type":"uint256[]","internalType":"uint256[]"},{"name":"values","type":"uint256[]","internalType":"uint256[]"},{"name":"data","type":"bytes","internalType":"bytes"}],"outputs":[],"stateMutability":"nonpayable"},{"type":"function","name":"safeTransferFrom","inputs":[{"name":"from","type":"address","internalType":"address"},{"name":"to","type":"address","internalType":"address"},{"name":"id","type":"uint256","internalType":"uint256"},{"name":"value","type":"uint256","internalType":"uint256"},{"name":"data","type":"bytes","internalType":"bytes"}],"outputs":[],"stateMutability":"nonpayable"},{"type":"function","name":"setApprovalForAll","inputs":[{"name":"operator","type":"address","internalType":"address"},{"name":"approved","type":"bool","internalType":"bool"}],"outputs":[],"stateMutability":"nonpayable"},{"type":"function","name":"supportsInterface","inputs":[{"name":"interfaceId","type":"bytes4","internalType":"bytes4"}],"outputs":[{"name":"","type":"bool","internalType":"bool"}],"stateMutability":"view"},{"type":"function","name":"transferOwnership","inputs":[{"name":"newOwner","type":"address","internalType":"address"}],"outputs":[],"stateMutability":"nonpayable"},{"type":"function","name":"uri","inputs":[{"name":"id","type":"uint256","internalType":"uint256"}],"outputs":[{"name":"","type":"string","internalType":"string"}],"stateMutability":"view"},{"type":"event","name":"ApprovalForAll","inputs":[{"name":"account","type":"address","indexed":true,"internalType":"address"},{"name":"operator","type":"address","indexed":true,"internalType":"address"},{"name":"approved","type":"bool","indexed":false,"internalType":"bool"}],"anonymous":false},{"type":"event","name":"OwnershipTransferred","inputs":[{"name":"previousOwner","type":"address","indexed":true,"internalType":"address"},{"name":"newOwner","type":"address","indexed":true,"internalType":"address"}],"anonymous":false},{"type":"event","name":"TransferBatch","inputs":[{"name":"operator","type":"address","indexed":true,"internalType":"address"},{"name":"from","type":"address","indexed":true,"internalType":"address"},{"name":"to","type":"address","indexed":true,"internalType":"address"},{"name":"ids","type":"uint256[]","indexed":false,"internalType":"uint256[]"},{"name":"values","type":"uint256[]","indexed":false,"internalType":"uint256[]"}],"anonymous":false},{"type":"event","name":"TransferSingle","inputs":[{"name":"operator","type":"address","indexed":true,"internalType":"address"},{"name":"from","type":"address","indexed":true,"internalType":"address"},{"name":"to","type":"address","indexed":true,"internalType":"address"},{"name":"id","type":"uint256","indexed":false,"internalType":"uint256"},{"name":"value","type":"uint256","indexed":false,"internalType":"uint256"}],"anonymous":false},{"type":"event","name":"URI","inputs":[{"name":"value","type":"string","indexed":false,"internalType":"string"},{"name":"id","type":"uint256","indexed":true,"internalType":"uint256"}],"anonymous":false},{"type":"error","name":"ERC1155InsufficientBalance","inputs":[{"name":"sender","type":"address","internalType":"address"},{"name":"balance","type":"uint256","internalType":"uint256"},{"name":"needed","type":"uint256","internalType":"uint256"},{"name":"tokenId","type":"uint256","internalType":"uint256"}]},{"type":"error","name":"ERC1155InvalidApprover","inputs":[{"name":"approver","type":"address","internalType":"address"}]},{"type":"error","name":"ERC1155InvalidArrayLength","inputs":[{"name":"idsLength","type":"uint256","internalType":"uint256"},{"name":"valuesLength","type":"uint256","internalType":"uint256"}]},{"type":"error","name":"ERC1155InvalidOperator","inputs":[{"name":"operator","type":"address","internalType":"address"}]},{"type":"error","name":"ERC1155InvalidReceiver","inputs":[{"name":"receiver","type":"address","internalType":"address"}]},{"type":"error","name":"ERC1155InvalidSender","inputs":[{"name":"sender","type":"address","internalType":"address"}]},{"type":"error","name":"ERC1155MissingApprovalForAll","inputs":[{"name":"operator","type":"address","internalType":"address"},{"name":"owner","type":"address","internalType":"address"}]},{"type":"error","name":"OwnableInvalidOwner","inputs":[{"name":"owner","type":"address","internalType":"address"}]},{"type":"error","name":"OwnableUnauthorizedAccount","inputs":[{"name":"account","type":"address","internalType":"address"}]}],"bytecode":{"object":"0x608060405234801562000010575f80fd5b506040516200174038038062001740833981016040819052620000339162000133565b60408051602081019091525f815281906200004e81620000a0565b506001600160a01b0381166200007d57604051631e4fbdf760e01b81525f600482015260240160405180910390fd5b6200008881620000b2565b5060046200009783826200029e565b5050506200036a565b6002620000ae82826200029e565b5050565b600380546001600160a01b038381166001600160a01b0319831681179093556040519116919082907f8be0079c531659141344cd1fd0a4f28419497f9722a3daafe3b4186f6b6457e0905f90a35050565b634e487b7160e01b5f52604160045260245ffd5b80516001600160a01b03811681146200012e575f80fd5b919050565b5f806040838503121562000145575f80fd5b82516001600160401b03808211156200015c575f80fd5b818501915085601f83011262000170575f80fd5b81518181111562000185576200018562000103565b604051601f8201601f19908116603f01168101908382118183101715620001b057620001b062000103565b81604052828152602093508884848701011115620001cc575f80fd5b5f91505b82821015620001ef5784820184015181830185015290830190620001d0565b5f8484830101528096505050506200020981860162000117565b925050509250929050565b600181811c908216806200022957607f821691505b6020821081036200024857634e487b7160e01b5f52602260045260245ffd5b50919050565b601f8211156200029957805f5260205f20601f840160051c81016020851015620002755750805b601f840160051c820191505b8181101562000296575f815560010162000281565b50505b505050565b81516001600160401b03811115620002ba57620002ba62000103565b620002d281620002cb845462000214565b846200024e565b602080601f83116001811462000308575f8415620002f05750858301515b5f19600386901b1c1916600185901b17855562000362565b5f85815260208120601f198616915b82811015620003385788860151825594840194600190910190840162000317565b50858210156200035657878501515f19600388901b60f8161c191681555b505060018460011b0185555b505050505050565b6113c880620003785f395ff3fe608060405234801561000f575f80fd5b50600436106100fa575f3560e01c8063715018a611610093578063b2449d6511610063578063b2449d6514610219578063e985e9c514610221578063f242432a1461025c578063f2fde38b1461026f575f80fd5b8063715018a6146101d05780638da5cb5b146101d8578063a22cb465146101f3578063a29b3f5b14610206575f80fd5b80630e89341c116100ce5780630e89341c146101755780632eb2c2d6146101885780634e1273f41461019d5780634ed387b2146101bd575f80fd5b8062fdd58e146100fe57806301ffc9a714610124578063066f69af146101475780630d4834421461015c575b5f80fd5b61011161010c366004610d66565b610282565b6040519081526020015b60405180910390f35b610137610132366004610da3565b6102a9565b604051901515815260200161011b565b61014f6102f8565b60405161011b9190610e08565b6101635f81565b60405160ff909116815260200161011b565b61014f610183366004610e1a565b610384565b61019b610196366004610f71565b6103cd565b005b6101b06101ab366004611014565b6103ec565b60405161011b9190611108565b61019b6101cb36600461111a565b6104bc565b61019b6104e6565b6003546040516001600160a01b03909116815260200161011b565b61019b61020136600461115b565b6104f9565b61019b61021436600461111a565b610508565b610163600181565b61013761022f366004611194565b6001600160a01b039182165f90815260016020908152604080832093909416825291909152205460ff1690565b61019b61026a3660046111c5565b61051e565b61019b61027d366004611225565b610534565b5f818152602081815260408083206001600160a01b03861684529091529020545b92915050565b5f6001600160e01b03198216636cdb3d1360e11b14806102d957506001600160e01b031982166303a24d0760e21b145b806102a357506301ffc9a760e01b6001600160e01b03198316146102a3565b600480546103059061123e565b80601f01602080910402602001604051908101604052809291908181526020018280546103319061123e565b801561037c5780601f106103535761010080835404028352916020019161037c565b820191905f5260205f20905b81548152906001019060200180831161035f57829003601f168201915b505050505081565b6060600182146103ae57604051806040016040528060028152602001616e6f60f01b8152506102a3565b505060408051808201909152600381526279657360e81b602082015290565b6103d8335b86610571565b6103e585858585856105e9565b5050505050565b606081518351146104225781518351604051635b05999160e01b8152600481019290925260248201526044015b60405180910390fd5b5f835167ffffffffffffffff81111561043d5761043d610e31565b604051908082528060200260200182016040528015610466578160200160208202803683370190505b5090505f5b84518110156104b45760208082028601015161048f90602080840287010151610282565b8282815181106104a1576104a1611276565b602090810291909101015260010161046b565b509392505050565b6104c4610649565b6104e1838360ff168360405180602001604052805f815250610676565b505050565b6104ee610649565b6104f75f6106da565b565b61050433838361072b565b5050565b610510610649565b6104e1838360ff16836107e8565b610527336103d2565b6103e5858585858561084f565b61053c610649565b6001600160a01b03811661056557604051631e4fbdf760e01b81525f6004820152602401610419565b61056e816106da565b50565b816001600160a01b0316816001600160a01b0316141580156105b857506001600160a01b038082165f9081526001602090815260408083209386168352929052205460ff16155b156105045760405163711bec9160e11b81526001600160a01b03808416600483015282166024820152604401610419565b6001600160a01b03841661061257604051632bfa23e760e11b81525f6004820152602401610419565b6001600160a01b03851661063a57604051626a0d4560e21b81525f6004820152602401610419565b6103e5858585858560016108dc565b6003546001600160a01b031633146104f75760405163118cdaa760e01b8152336004820152602401610419565b6001600160a01b03841661069f57604051632bfa23e760e11b81525f6004820152602401610419565b604080516001808252602082018690528183019081526060820185905260808201909252906106d25f87848487846108dc565b505050505050565b600380546001600160a01b038381166001600160a01b0319831681179093556040519116919082907f8be0079c531659141344cd1fd0a4f28419497f9722a3daafe3b4186f6b6457e0905f90a35050565b6001600160a01b03831661075457604051631f18c42760e11b81525f6004820152602401610419565b6001600160a01b03821661077c5760405162ced3e160e81b81525f6004820152602401610419565b6001600160a01b038381165f81815260016020908152604080832094871680845294825291829020805460ff191686151590811790915591519182527f17307eab39ab6107e8899845ad3d59bd9653f200f220920489ca2b5937696c31910160405180910390a3505050565b6001600160a01b03831661081057604051626a0d4560e21b81525f6004820152602401610419565b604080516001808252602082018590528183019081526060820184905260a082019092525f608082018181529192916103e591879185908590836108dc565b6001600160a01b03841661087857604051632bfa23e760e11b81525f6004820152602401610419565b6001600160a01b0385166108a057604051626a0d4560e21b81525f6004820152602401610419565b604080516001808252602082018690528183019081526060820185905260808201909252906108d387878484875f6108dc565b50505050505050565b6108e886868686610934565b6001600160a01b038516156106d2573381156109115761090c818888888888610b43565b6108d3565b60208581015190850151610929838a8a85858a610c64565b505050505050505050565b80518251146109635781518151604051635b05999160e01b815260048101929092526024820152604401610419565b335f5b8351811015610a65576020818102858101820151908501909101516001600160a01b03881615610a17575f828152602081815260408083206001600160a01b038c168452909152902054818110156109f1576040516303dee4c560e01b81526001600160a01b038a166004820152602481018290526044810183905260648101849052608401610419565b5f838152602081815260408083206001600160a01b038d16845290915290209082900390555b6001600160a01b03871615610a5b575f828152602081815260408083206001600160a01b038b16845290915281208054839290610a5590849061128a565b90915550505b5050600101610966565b508251600103610ae55760208301515f906020840151909150856001600160a01b0316876001600160a01b0316846001600160a01b03167fc3d58168c5ae7397731d063d5bbf3d657854427343f4c083240f7aacaa2d0f628585604051610ad6929190918252602082015260400190565b60405180910390a450506103e5565b836001600160a01b0316856001600160a01b0316826001600160a01b03167f4a39dc06d4c0dbc64b70af90fd698a233a518aa5d07e595d983b8c0526c8f7fb8686604051610b349291906112a9565b60405180910390a45050505050565b6001600160a01b0384163b156106d25760405163bc197c8160e01b81526001600160a01b0385169063bc197c8190610b8790899089908890889088906004016112d6565b6020604051808303815f875af1925050508015610bc1575060408051601f3d908101601f19168201909252610bbe91810190611333565b60015b610c28573d808015610bee576040519150601f19603f3d011682016040523d82523d5f602084013e610bf3565b606091505b5080515f03610c2057604051632bfa23e760e11b81526001600160a01b0386166004820152602401610419565b805160208201fd5b6001600160e01b0319811663bc197c8160e01b146108d357604051632bfa23e760e11b81526001600160a01b0386166004820152602401610419565b6001600160a01b0384163b156106d25760405163f23a6e6160e01b81526001600160a01b0385169063f23a6e6190610ca8908990899088908890889060040161134e565b6020604051808303815f875af1925050508015610ce2575060408051601f3d908101601f19168201909252610cdf91810190611333565b60015b610d0f573d808015610bee576040519150601f19603f3d011682016040523d82523d5f602084013e610bf3565b6001600160e01b0319811663f23a6e6160e01b146108d357604051632bfa23e760e11b81526001600160a01b0386166004820152602401610419565b80356001600160a01b0381168114610d61575f80fd5b919050565b5f8060408385031215610d77575f80fd5b610d8083610d4b565b946020939093013593505050565b6001600160e01b03198116811461056e575f80fd5b5f60208284031215610db3575f80fd5b8135610dbe81610d8e565b9392505050565b5f81518084525f5b81811015610de957602081850181015186830182015201610dcd565b505f602082860101526020601f19601f83011685010191505092915050565b602081525f610dbe6020830184610dc5565b5f60208284031215610e2a575f80fd5b5035919050565b634e487b7160e01b5f52604160045260245ffd5b604051601f8201601f1916810167ffffffffffffffff81118282101715610e6e57610e6e610e31565b604052919050565b5f67ffffffffffffffff821115610e8f57610e8f610e31565b5060051b60200190565b5f82601f830112610ea8575f80fd5b81356020610ebd610eb883610e76565b610e45565b8083825260208201915060208460051b870101935086841115610ede575f80fd5b602086015b84811015610efa5780358352918301918301610ee3565b509695505050505050565b5f82601f830112610f14575f80fd5b813567ffffffffffffffff811115610f2e57610f2e610e31565b610f41601f8201601f1916602001610e45565b818152846020838601011115610f55575f80fd5b816020850160208301375f918101602001919091529392505050565b5f805f805f60a08688031215610f85575f80fd5b610f8e86610d4b565b9450610f9c60208701610d4b565b9350604086013567ffffffffffffffff80821115610fb8575f80fd5b610fc489838a01610e99565b94506060880135915080821115610fd9575f80fd5b610fe589838a01610e99565b93506080880135915080821115610ffa575f80fd5b5061100788828901610f05565b9150509295509295909350565b5f8060408385031215611025575f80fd5b823567ffffffffffffffff8082111561103c575f80fd5b818501915085601f83011261104f575f80fd5b8135602061105f610eb883610e76565b82815260059290921b8401810191818101908984111561107d575f80fd5b948201945b838610156110a25761109386610d4b565b82529482019490820190611082565b965050860135925050808211156110b7575f80fd5b506110c485828601610e99565b9150509250929050565b5f815180845260208085019450602084015f5b838110156110fd578151875295820195908201906001016110e1565b509495945050505050565b602081525f610dbe60208301846110ce565b5f805f6060848603121561112c575f80fd5b61113584610d4b565b9250602084013560ff8116811461114a575f80fd5b929592945050506040919091013590565b5f806040838503121561116c575f80fd5b61117583610d4b565b915060208301358015158114611189575f80fd5b809150509250929050565b5f80604083850312156111a5575f80fd5b6111ae83610d4b565b91506111bc60208401610d4b565b90509250929050565b5f805f805f60a086880312156111d9575f80fd5b6111e286610d4b565b94506111f060208701610d4b565b93506040860135925060608601359150608086013567ffffffffffffffff811115611219575f80fd5b61100788828901610f05565b5f60208284031215611235575f80fd5b610dbe82610d4b565b600181811c9082168061125257607f821691505b60208210810361127057634e487b7160e01b5f52602260045260245ffd5b50919050565b634e487b7160e01b5f52603260045260245ffd5b808201808211156102a357634e487b7160e01b5f52601160045260245ffd5b604081525f6112bb60408301856110ce565b82810360208401526112cd81856110ce565b95945050505050565b6001600160a01b0386811682528516602082015260a0604082018190525f90611301908301866110ce565b828103606084015261131381866110ce565b905082810360808401526113278185610dc5565b98975050505050505050565b5f60208284031215611343575f80fd5b8151610dbe81610d8e565b6001600160a01b03868116825285166020820152604081018490526060810183905260a0608082018190525f9061138790830184610dc5565b97965050505050505056fea264697066735822122012c37d5943aa675e7d3bbf715341a6e583534fb83e1a34e9f7d9d7489b31f9a964736f6c63430008180033","linkReferences":{}},"methodIdentifiers":{"NO()":"0d483442","YES()":"b2449d65","balanceOf(address,uint256)":"00fdd58e","balanceOfBatch(address[],uint256[])":"4e1273f4","burn(address,uint8,uint256)":"a29b3f5b","isApprovedForAll(address,address)":"e985e9c5","marketQuestion()":"066f69af","mint(address,uint8,uint256)":"4ed387b2","owner()":"8da5cb5b","renounceOwnership()":"715018a6","safeBatchTransferFrom(address,address,uint256[],uint256[],bytes)":"2eb2c2d6","safeTransferFrom(address,address,uint256,uint256,bytes)":"f242432a","setApprovalForAll(address,bool)":"a22cb465","supportsInterface(bytes4)":"01ffc9a7","transferOwnership(address)":"f2fde38b","uri(uint256)":"0e89341c"},"id":81}